{
  "_format": "hh-sol-artifact-1",
  "contractName": "Inflow1155",
  "sourceName": "contracts/token/nft/Inflow1155.sol",
  "abi": [
    {
      "anonymous": false,
      "inputs": [
        {
          "indexed": true,
          "internalType": "address",
          "name": "account",
          "type": "address"
        },
        {
          "indexed": true,
          "internalType": "address",
          "name": "operator",
          "type": "address"
        },
        {
          "indexed": false,
          "internalType": "bool",
          "name": "approved",
          "type": "bool"
        }
      ],
      "name": "ApprovalForAll",
      "type": "event"
    },
    {
      "anonymous": false,
      "inputs": [
        {
          "indexed": true,
          "internalType": "address",
          "name": "burner",
          "type": "address"
        },
        {
          "indexed": true,
          "internalType": "uint256",
          "name": "tokenId",
          "type": "uint256"
        },
        {
          "indexed": true,
          "internalType": "uint256",
          "name": "amount",
          "type": "uint256"
        }
      ],
      "name": "Burned",
      "type": "event"
    },
    {
      "anonymous": false,
      "inputs": [
        {
          "indexed": true,
          "internalType": "address",
          "name": "creator",
          "type": "address"
        },
        {
          "indexed": true,
          "internalType": "uint256",
          "name": "tokenId",
          "type": "uint256"
        },
        {
          "indexed": true,
          "internalType": "uint256",
          "name": "supply",
          "type": "uint256"
        },
        {
          "indexed": false,
          "internalType": "uint256",
          "name": "maxSupply",
          "type": "uint256"
        },
        {
          "indexed": false,
          "internalType": "string",
          "name": "uri",
          "type": "string"
        }
      ],
      "name": "Created",
      "type": "event"
    },
    {
      "anonymous": false,
      "inputs": [
        {
          "indexed": true,
          "internalType": "address",
          "name": "minter",
          "type": "address"
        },
        {
          "indexed": true,
          "internalType": "uint256[]",
          "name": "ids",
          "type": "uint256[]"
        },
        {
          "indexed": true,
          "internalType": "uint256[]",
          "name": "values",
          "type": "uint256[]"
        }
      ],
      "name": "MintedBatch",
      "type": "event"
    },
    {
      "anonymous": false,
      "inputs": [
        {
          "indexed": true,
          "internalType": "address",
          "name": "minter",
          "type": "address"
        },
        {
          "indexed": true,
          "internalType": "uint256",
          "name": "tokenId",
          "type": "uint256"
        },
        {
          "indexed": true,
          "internalType": "uint256",
          "name": "amount",
          "type": "uint256"
        }
      ],
      "name": "MintedSingle",
      "type": "event"
    },
    {
      "anonymous": false,
      "inputs": [
        {
          "indexed": true,
          "internalType": "address",
          "name": "previousOwner",
          "type": "address"
        },
        {
          "indexed": true,
          "internalType": "address",
          "name": "newOwner",
          "type": "address"
        }
      ],
      "name": "OwnershipTransferred",
      "type": "event"
    },
    {
      "anonymous": false,
      "inputs": [
        {
          "indexed": false,
          "internalType": "uint256",
          "name": "tokenId",
          "type": "uint256"
        },
        {
          "components": [
            {
              "internalType": "address payable",
              "name": "account",
              "type": "address"
            },
            {
              "internalType": "uint96",
              "name": "value",
              "type": "uint96"
            }
          ],
          "indexed": false,
          "internalType": "struct LibPart.Part[]",
          "name": "royalties",
          "type": "tuple[]"
        }
      ],
      "name": "RoyaltiesSet",
      "type": "event"
    },
    {
      "anonymous": false,
      "inputs": [
        {
          "indexed": true,
          "internalType": "address",
          "name": "operator",
          "type": "address"
        },
        {
          "indexed": true,
          "internalType": "address",
          "name": "from",
          "type": "address"
        },
        {
          "indexed": true,
          "internalType": "address",
          "name": "to",
          "type": "address"
        },
        {
          "indexed": false,
          "internalType": "uint256[]",
          "name": "ids",
          "type": "uint256[]"
        },
        {
          "indexed": false,
          "internalType": "uint256[]",
          "name": "values",
          "type": "uint256[]"
        }
      ],
      "name": "TransferBatch",
      "type": "event"
    },
    {
      "anonymous": false,
      "inputs": [
        {
          "indexed": true,
          "internalType": "address",
          "name": "operator",
          "type": "address"
        },
        {
          "indexed": true,
          "internalType": "address",
          "name": "from",
          "type": "address"
        },
        {
          "indexed": true,
          "internalType": "address",
          "name": "to",
          "type": "address"
        },
        {
          "indexed": false,
          "internalType": "uint256",
          "name": "id",
          "type": "uint256"
        },
        {
          "indexed": false,
          "internalType": "uint256",
          "name": "value",
          "type": "uint256"
        }
      ],
      "name": "TransferSingle",
      "type": "event"
    },
    {
      "anonymous": false,
      "inputs": [
        {
          "indexed": false,
          "internalType": "string",
          "name": "value",
          "type": "string"
        },
        {
          "indexed": true,
          "internalType": "uint256",
          "name": "id",
          "type": "uint256"
        }
      ],
      "name": "URI",
      "type": "event"
    },
    {
      "anonymous": false,
      "inputs": [
        {
          "indexed": true,
          "internalType": "address",
          "name": "account",
          "type": "address"
        }
      ],
      "name": "Unwhitelisted",
      "type": "event"
    },
    {
      "anonymous": false,
      "inputs": [
        {
          "indexed": true,
          "internalType": "address",
          "name": "account",
          "type": "address"
        }
      ],
      "name": "Whitelisted",
      "type": "event"
    },
    {
      "inputs": [
        {
          "internalType": "address",
          "name": "account",
          "type": "address"
        },
        {
          "internalType": "uint256",
          "name": "id",
          "type": "uint256"
        }
      ],
      "name": "balanceOf",
      "outputs": [
        {
          "internalType": "uint256",
          "name": "",
          "type": "uint256"
        }
      ],
      "stateMutability": "view",
      "type": "function"
    },
    {
      "inputs": [
        {
          "internalType": "address[]",
          "name": "accounts",
          "type": "address[]"
        },
        {
          "internalType": "uint256[]",
          "name": "ids",
          "type": "uint256[]"
        }
      ],
      "name": "balanceOfBatch",
      "outputs": [
        {
          "internalType": "uint256[]",
          "name": "",
          "type": "uint256[]"
        }
      ],
      "stateMutability": "view",
      "type": "function"
    },
    {
      "inputs": [],
      "name": "baseUri",
      "outputs": [
        {
          "internalType": "string",
          "name": "",
          "type": "string"
        }
      ],
      "stateMutability": "view",
      "type": "function"
    },
    {
      "inputs": [
        {
          "internalType": "uint256",
          "name": "tokenId",
          "type": "uint256"
        },
        {
          "internalType": "uint256",
          "name": "amount",
          "type": "uint256"
        }
      ],
      "name": "burn",
      "outputs": [],
      "stateMutability": "nonpayable",
      "type": "function"
    },
    {
      "inputs": [
        {
          "components": [
            {
              "internalType": "uint256",
              "name": "supply",
              "type": "uint256"
            },
            {
              "internalType": "uint256",
              "name": "maxSupply",
              "type": "uint256"
            },
            {
              "internalType": "string",
              "name": "uri",
              "type": "string"
            },
            {
              "components": [
                {
                  "internalType": "address payable",
                  "name": "account",
                  "type": "address"
                },
                {
                  "internalType": "uint96",
                  "name": "value",
                  "type": "uint96"
                }
              ],
              "internalType": "struct LibPart.Part[]",
              "name": "royalties",
              "type": "tuple[]"
            }
          ],
          "internalType": "struct IInflow1155.CreateData",
          "name": "data",
          "type": "tuple"
        }
      ],
      "name": "create",
      "outputs": [
        {
          "internalType": "uint256",
          "name": "tokenId",
          "type": "uint256"
        }
      ],
      "stateMutability": "nonpayable",
      "type": "function"
    },
    {
      "inputs": [
        {
          "internalType": "uint256",
          "name": "tokenId",
          "type": "uint256"
        }
      ],
      "name": "getRoyalties",
      "outputs": [
        {
          "components": [
            {
              "internalType": "address payable",
              "name": "account",
              "type": "address"
            },
            {
              "internalType": "uint96",
              "name": "value",
              "type": "uint96"
            }
          ],
          "internalType": "struct LibPart.Part[]",
          "name": "",
          "type": "tuple[]"
        }
      ],
      "stateMutability": "view",
      "type": "function"
    },
    {
      "inputs": [
        {
          "internalType": "uint256",
          "name": "tokenId",
          "type": "uint256"
        }
      ],
      "name": "getToken",
      "outputs": [
        {
          "components": [
            {
              "internalType": "address",
              "name": "creator",
              "type": "address"
            },
            {
              "internalType": "uint256",
              "name": "supply",
              "type": "uint256"
            },
            {
              "internalType": "uint256",
              "name": "maxSupply",
              "type": "uint256"
            },
            {
              "internalType": "string",
              "name": "uri",
              "type": "string"
            }
          ],
          "internalType": "struct IInflow1155.Token",
          "name": "",
          "type": "tuple"
        }
      ],
      "stateMutability": "view",
      "type": "function"
    },
    {
      "inputs": [
        {
          "internalType": "address",
          "name": "account",
          "type": "address"
        },
        {
          "internalType": "address",
          "name": "operator",
          "type": "address"
        }
      ],
      "name": "isApprovedForAll",
      "outputs": [
        {
          "internalType": "bool",
          "name": "",
          "type": "bool"
        }
      ],
      "stateMutability": "view",
      "type": "function"
    },
    {
      "inputs": [
        {
          "internalType": "address",
          "name": "account",
          "type": "address"
        }
      ],
      "name": "isWhitelisted",
      "outputs": [
        {
          "internalType": "bool",
          "name": "",
          "type": "bool"
        }
      ],
      "stateMutability": "view",
      "type": "function"
    },
    {
      "inputs": [
        {
          "internalType": "uint256",
          "name": "tokenId",
          "type": "uint256"
        },
        {
          "internalType": "uint256",
          "name": "amount",
          "type": "uint256"
        }
      ],
      "name": "mint",
      "outputs": [],
      "stateMutability": "nonpayable",
      "type": "function"
    },
    {
      "inputs": [
        {
          "internalType": "uint256[]",
          "name": "tokenIds",
          "type": "uint256[]"
        },
        {
          "internalType": "uint256[]",
          "name": "amounts",
          "type": "uint256[]"
        }
      ],
      "name": "mintBatch",
      "outputs": [],
      "stateMutability": "nonpayable",
      "type": "function"
    },
    {
      "inputs": [],
      "name": "owner",
      "outputs": [
        {
          "internalType": "address",
          "name": "",
          "type": "address"
        }
      ],
      "stateMutability": "view",
      "type": "function"
    },
    {
      "inputs": [],
      "name": "renounceOwnership",
      "outputs": [],
      "stateMutability": "nonpayable",
      "type": "function"
    },
    {
      "inputs": [
        {
          "internalType": "uint256",
          "name": "",
          "type": "uint256"
        },
        {
          "internalType": "uint256",
          "name": "",
          "type": "uint256"
        }
      ],
      "name": "royalties",
      "outputs": [
        {
          "internalType": "address payable",
          "name": "account",
          "type": "address"
        },
        {
          "internalType": "uint96",
          "name": "value",
          "type": "uint96"
        }
      ],
      "stateMutability": "view",
      "type": "function"
    },
    {
      "inputs": [
        {
          "internalType": "address",
          "name": "from",
          "type": "address"
        },
        {
          "internalType": "address",
          "name": "to",
          "type": "address"
        },
        {
          "internalType": "uint256[]",
          "name": "ids",
          "type": "uint256[]"
        },
        {
          "internalType": "uint256[]",
          "name": "amounts",
          "type": "uint256[]"
        },
        {
          "internalType": "bytes",
          "name": "data",
          "type": "bytes"
        }
      ],
      "name": "safeBatchTransferFrom",
      "outputs": [],
      "stateMutability": "nonpayable",
      "type": "function"
    },
    {
      "inputs": [
        {
          "internalType": "address",
          "name": "from",
          "type": "address"
        },
        {
          "internalType": "address",
          "name": "to",
          "type": "address"
        },
        {
          "internalType": "uint256",
          "name": "id",
          "type": "uint256"
        },
        {
          "internalType": "uint256",
          "name": "amount",
          "type": "uint256"
        },
        {
          "internalType": "bytes",
          "name": "data",
          "type": "bytes"
        }
      ],
      "name": "safeTransferFrom",
      "outputs": [],
      "stateMutability": "nonpayable",
      "type": "function"
    },
    {
      "inputs": [
        {
          "internalType": "address",
          "name": "operator",
          "type": "address"
        },
        {
          "internalType": "bool",
          "name": "approved",
          "type": "bool"
        }
      ],
      "name": "setApprovalForAll",
      "outputs": [],
      "stateMutability": "nonpayable",
      "type": "function"
    },
    {
      "inputs": [
        {
          "internalType": "string",
          "name": "_baseUri",
          "type": "string"
        }
      ],
      "name": "setBaseUri",
      "outputs": [],
      "stateMutability": "nonpayable",
      "type": "function"
    },
    {
      "inputs": [
        {
          "internalType": "bool",
          "name": "enabled",
          "type": "bool"
        }
      ],
      "name": "setWhitelistEnabled",
      "outputs": [],
      "stateMutability": "nonpayable",
      "type": "function"
    },
    {
      "inputs": [
        {
          "internalType": "bytes4",
          "name": "interfaceId",
          "type": "bytes4"
        }
      ],
      "name": "supportsInterface",
      "outputs": [
        {
          "internalType": "bool",
          "name": "",
          "type": "bool"
        }
      ],
      "stateMutability": "view",
      "type": "function"
    },
    {
      "inputs": [
        {
          "internalType": "address",
          "name": "newOwner",
          "type": "address"
        }
      ],
      "name": "transferOwnership",
      "outputs": [],
      "stateMutability": "nonpayable",
      "type": "function"
    },
    {
      "inputs": [
        {
          "internalType": "address",
          "name": "account",
          "type": "address"
        }
      ],
      "name": "unwhitelist",
      "outputs": [
        {
          "internalType": "bool",
          "name": "success",
          "type": "bool"
        }
      ],
      "stateMutability": "nonpayable",
      "type": "function"
    },
    {
      "inputs": [
        {
          "internalType": "uint256",
          "name": "tokenId",
          "type": "uint256"
        },
        {
          "internalType": "address",
          "name": "from",
          "type": "address"
        },
        {
          "internalType": "address",
          "name": "to",
          "type": "address"
        }
      ],
      "name": "updateRoyaltyAccount",
      "outputs": [],
      "stateMutability": "nonpayable",
      "type": "function"
    },
    {
      "inputs": [
        {
          "internalType": "uint256",
          "name": "tokenId",
          "type": "uint256"
        }
      ],
      "name": "uri",
      "outputs": [
        {
          "internalType": "string",
          "name": "uri_",
          "type": "string"
        }
      ],
      "stateMutability": "view",
      "type": "function"
    },
    {
      "inputs": [
        {
          "internalType": "address",
          "name": "account",
          "type": "address"
        }
      ],
      "name": "whitelist",
      "outputs": [
        {
          "internalType": "bool",
          "name": "success",
          "type": "bool"
        }
      ],
      "stateMutability": "nonpayable",
      "type": "function"
    }
  ],
  "bytecode": "0x60806040526000805460ff60a01b1916600160a01b1790553480156200002457600080fd5b5060408051602081018252600080825280546001600160a01b03191633908117825592519192918291907f8be0079c531659141344cd1fd0a4f28419497f9722a3daafe3b4186f6b6457e0908290a3506200007f8162000086565b5062000182565b80516200009b9060059060208401906200009f565b5050565b828054620000ad9062000145565b90600052602060002090601f016020900481019282620000d157600085556200011c565b82601f10620000ec57805160ff19168380011785556200011c565b828001600101855582156200011c579182015b828111156200011c578251825591602001919060010190620000ff565b506200012a9291506200012e565b5090565b5b808211156200012a57600081556001016200012f565b600181811c908216806200015a57607f821691505b602082108114156200017c57634e487b7160e01b600052602260045260246000fd5b50919050565b61344180620001926000396000f3fe608060405234801561001057600080fd5b50600436106101725760003560e01c80638da5cb5b116100de578063b390c0ab11610097578063e4b50cb811610071578063e4b50cb81461036b578063e985e9c51461038b578063f242432a146103c7578063f2fde38b146103da57600080fd5b8063b390c0ab14610325578063bb3bafd614610338578063d351cfdc1461035857600080fd5b80638da5cb5b146102b65780639a590427146102d15780639abc8320146102e45780639b19251a146102ec578063a0bcfc7f146102ff578063a22cb4651461031257600080fd5b80632eb2c2d6116101305780632eb2c2d61461021b578063350f08021461022e5780633af32abf146102415780634e1273f414610254578063715018a6146102745780638924af741461027c57600080fd5b8062fdd58e1461017757806301ffc9a71461019d578063052d9e7e146101c05780630e89341c146101d55780631942eb84146101f55780631b2ef1ca14610208575b600080fd5b61018a61018536600461295a565b6103ed565b6040519081526020015b60405180910390f35b6101b06101ab366004612ab4565b610489565b6040519015158152602001610194565b6101d36101ce366004612a9a565b6104d9565b005b6101e86101e3366004612c64565b610521565b6040516101949190612f9b565b61018a610203366004612b1e565b610730565b6101d3610216366004612cbd565b610963565b6101d3610229366004612817565b610a92565b6101d361023c366004612c7c565b610d1b565b6101b061024f3660046127c3565b610d94565b610267610262366004612985565b610da1565b6040516101949190612f5a565b6101d3610f02565b61028f61028a366004612cbd565b610f76565b604080516001600160a01b0390931683526001600160601b03909116602083015201610194565b6000546040516001600160a01b039091168152602001610194565b6101b06102df3660046127c3565b610fbf565b6101e8611037565b6101b06102fa3660046127c3565b6110c5565b6101d361030d366004612aec565b61113c565b6101d3610320366004612926565b61117d565b6101d3610333366004612cbd565b611254565b61034b610346366004612c64565b611355565b6040516101949190612f47565b6101d3610366366004612a51565b6113e4565b61037e610379366004612c64565b611635565b6040516101949190613143565b6101b06103993660046127df565b6001600160a01b03918216600090815260046020908152604080832093909416825291909152205460ff1690565b6101d36103d53660046128c0565b611749565b6101d36103e83660046127c3565b6118fd565b60006001600160a01b03831661045e5760405162461bcd60e51b815260206004820152602b60248201527f455243313135353a2062616c616e636520717565727920666f7220746865207a60448201526a65726f206164647265737360a81b60648201526084015b60405180910390fd5b5060008181526003602090815260408083206001600160a01b03861684529091529020545b92915050565b60006001600160e01b03198216636cdb3d1360e11b14806104ba57506001600160e01b031982166303a24d0760e21b145b8061048357506301ffc9a760e01b6001600160e01b0319831614610483565b6000546001600160a01b031633146105035760405162461bcd60e51b815260040161045590613085565b60008054911515600160a01b0260ff60a01b19909216919091179055565b60008181526008602052604090208054606091906001600160a01b031661058a5760405162461bcd60e51b815260206004820181905260248201527f496e666c6f77313135353a20746f6b656e20646f6573206e6f742065786973746044820152606401610455565b6000600980546105999061324c565b80601f01602080910402602001604051908101604052809291908181526020018280546105c59061324c565b80156106125780601f106105e757610100808354040283529160200191610612565b820191906000526020600020905b8154815290600101906020018083116105f557829003601f168201915b505050505090508051600014156106b7578160030180546106329061324c565b80601f016020809104026020016040519081016040528092919081815260200182805461065e9061324c565b80156106ab5780601f10610680576101008083540402835291602001916106ab565b820191906000526020600020905b81548152906001019060200180831161068e57829003601f168201915b50505050509250610729565b60008260030180546106c89061324c565b905011156106fc5780826003016040516020016106e6929190612df5565b6040516020818303038152906040529250610729565b80610706856119e7565b604051602001610717929190612dc6565b60405160208183030381529060405292505b5050919050565b60008054600160a01b900460ff161561079a5761074e600133611b08565b61079a5760405162461bcd60e51b815260206004820152601f60248201527f57686974656c69737461626c653a2077686974656c6973746564206f6e6c79006044820152606401610455565b60008260200151116107ee5760405162461bcd60e51b815260206004820152601e60248201527f496e666c6f77313135353a20696e76616c6964206d617820737570706c7900006044820152606401610455565b601082606001515111156108505760405162461bcd60e51b8152602060048201526024808201527f496e666c6f77313135353a20696e76616c696420726f79616c74696573206c656044820152630dccee8d60e31b6064820152608401610455565b61085e600780546001019055565b50600754604080516080810182523381528351602080830191825280860151838501908152868501516060850190815260008781526008845295909520845181546001600160a01b0319166001600160a01b039091161781559251600184015551600283015592518051929391926108dc92600385019201906125fb565b509050506108ee818360600151611b2d565b61090d3382846000015160405180602001604052806000815250611d0e565b816000015181336001600160a01b03167fabd1f6c9948cef5259f663ac8bcc5248313fe40731b228eaf7a8cfff95d46e308560200151866040015160405161095692919061319d565b60405180910390a4919050565b600082815260086020526040902080546001600160a01b031633146109c55760405162461bcd60e51b815260206004820152601860248201527724b7333637bb98989a9a9d1037b7363c9031b932b0ba37b960411b6044820152606401610455565b80600201548282600101546109da91906131d9565b1115610a285760405162461bcd60e51b815260206004820152601a60248201527f496e666c6f77313135353a20696e76616c696420616d6f756e740000000000006044820152606401610455565b81816001016000828254610a3c91906131d9565b92505081905550610a5e33848460405180602001604052806000815250611d0e565b6040518290849033907f58117cf93a879eed519e31d00fa5926a04d2f7dc3616dcc2df47498d287b90d790600090a4505050565b8151835114610ab35760405162461bcd60e51b8152600401610455906130ba565b6001600160a01b038416610ad95760405162461bcd60e51b815260040161045590612ff6565b6001600160a01b038516331480610af55750610af58533610399565b610b5c5760405162461bcd60e51b815260206004820152603260248201527f455243313135353a207472616e736665722063616c6c6572206973206e6f74206044820152711bdddb995c881b9bdc88185c1c1c9bdd995960721b6064820152608401610455565b3360005b8451811015610cad576000858281518110610b8b57634e487b7160e01b600052603260045260246000fd5b602002602001015190506000858381518110610bb757634e487b7160e01b600052603260045260246000fd5b60209081029190910181015160008481526003835260408082206001600160a01b038e168352909352919091205490915081811015610c085760405162461bcd60e51b81526004016104559061303b565b610c128282613205565b6003600085815260200190815260200160002060008c6001600160a01b03166001600160a01b0316815260200190815260200160002081905550816003600085815260200190815260200160002060008b6001600160a01b03166001600160a01b031681526020019081526020016000206000828254610c9291906131d9565b9250508190555050505080610ca6906132f7565b9050610b60565b50846001600160a01b0316866001600160a01b0316826001600160a01b03167f4a39dc06d4c0dbc64b70af90fd698a233a518aa5d07e595d983b8c0526c8f7fb8787604051610cfd929190612f6d565b60405180910390a4610d13818787878787611dd7565b505050505050565b336001600160a01b03831614610d845760405162461bcd60e51b815260206004820152602860248201527f496e666c6f77313135353a206f6e6c792063757272656e7420726f79616c7479604482015267081858d8dbdd5b9d60c21b6064820152608401610455565b610d8f838383611f42565b505050565b6000610483600183611b08565b60608151835114610e065760405162461bcd60e51b815260206004820152602960248201527f455243313135353a206163636f756e747320616e6420696473206c656e677468604482015268040dad2e6dac2e8c6d60bb1b6064820152608401610455565b600083516001600160401b03811115610e2f57634e487b7160e01b600052604160045260246000fd5b604051908082528060200260200182016040528015610e58578160200160208202803683370190505b50905060005b8451811015610efa57610ebf858281518110610e8a57634e487b7160e01b600052603260045260246000fd5b6020026020010151858381518110610eb257634e487b7160e01b600052603260045260246000fd5b60200260200101516103ed565b828281518110610edf57634e487b7160e01b600052603260045260246000fd5b6020908102919091010152610ef3816132f7565b9050610e5e565b509392505050565b6000546001600160a01b03163314610f2c5760405162461bcd60e51b815260040161045590613085565b600080546040516001600160a01b03909116907f8be0079c531659141344cd1fd0a4f28419497f9722a3daafe3b4186f6b6457e0908390a3600080546001600160a01b0319169055565b60066020528160005260406000208181548110610f9257600080fd5b6000918252602090912001546001600160a01b0381169250600160a01b90046001600160601b0316905082565b600080546001600160a01b03163314610fea5760405162461bcd60e51b815260040161045590613085565b610ff560018361201d565b90508015611032576040516001600160a01b038316907f51085ddf9ebdded84b76e829eb58c4078e4b5bdf97d9a94723f336039da4679190600090a25b919050565b600980546110449061324c565b80601f01602080910402602001604051908101604052809291908181526020018280546110709061324c565b80156110bd5780601f10611092576101008083540402835291602001916110bd565b820191906000526020600020905b8154815290600101906020018083116110a057829003601f168201915b505050505081565b600080546001600160a01b031633146110f05760405162461bcd60e51b815260040161045590613085565b6110fb600183612032565b90508015611032576040516001600160a01b038316907faab7954e9d246b167ef88aeddad35209ca2489d95a8aeb59e288d9b19fae5a5490600090a2919050565b6000546001600160a01b031633146111665760405162461bcd60e51b815260040161045590613085565b80516111799060099060208401906125fb565b5050565b336001600160a01b03831614156111e85760405162461bcd60e51b815260206004820152602960248201527f455243313135353a2073657474696e6720617070726f76616c20737461747573604482015268103337b91039b2b63360b91b6064820152608401610455565b3360008181526004602090815260408083206001600160a01b03871680855290835292819020805460ff191686151590811790915590519081529192917f17307eab39ab6107e8899845ad3d59bd9653f200f220920489ca2b5937696c31910160405180910390a35050565b600082815260086020526040902080546001600160a01b03166112b95760405162461bcd60e51b815260206004820181905260248201527f496e666c6f77313135353a20746f6b656e20646f6573206e6f742065786973746044820152606401610455565b818160010160008282546112cd9190613205565b9091555050600181015461131657600083815260086020526040812080546001600160a01b0319168155600181018290556002810182905590611313600383018261267f565b50505b611321338484612047565b6040518290849033907f23ff0e75edf108e3d0392d92e13e8c8a868ef19001bd49f9e94876dc46dff87f90600090a4505050565b606060066000838152602001908152602001600020805480602002602001604051908101604052809291908181526020016000905b828210156113d957600084815260209081902060408051808201909152908401546001600160a01b0381168252600160a01b90046001600160601b03168183015282526001909201910161138a565b505050509050919050565b805182511461143f5760405162461bcd60e51b815260206004820152602160248201527f496e666c6f77313135353a20696e76616c6964206172726179206c656e6774686044820152607360f81b6064820152608401610455565b6000805b83518110156115be576008600085838151811061147057634e487b7160e01b600052603260045260246000fd5b602090810291909101810151825281019190915260400160002080549092506001600160a01b031633146114e15760405162461bcd60e51b815260206004820152601860248201527724b7333637bb98989a9a9d1037b7363c9031b932b0ba37b960411b6044820152606401610455565b816002015483828151811061150657634e487b7160e01b600052603260045260246000fd5b6020026020010151836001015461151d91906131d9565b111561156b5760405162461bcd60e51b815260206004820152601a60248201527f496e666c6f77313135353a20696e76616c696420616d6f756e740000000000006044820152606401610455565b82818151811061158b57634e487b7160e01b600052603260045260246000fd5b60200260200101518260010160008282546115a691906131d9565b909155508190506115b6816132f7565b915050611443565b506115da338484604051806020016040528060008152506121cd565b816040516115e89190612d90565b6040518091039020836040516115fe9190612d90565b6040519081900381209033907f9d15fe863d6d778932c2425aab5de66f2fcc03f779b90c593d26ee152fbbe87190600090a4505050565b611669604051806080016040528060006001600160a01b031681526020016000815260200160008152602001606081525090565b600082815260086020908152604091829020825160808101845281546001600160a01b031681526001820154928101929092526002810154928201929092526003820180549192916060840191906116c09061324c565b80601f01602080910402602001604051908101604052809291908181526020018280546116ec9061324c565b80156117395780601f1061170e57610100808354040283529160200191611739565b820191906000526020600020905b81548152906001019060200180831161171c57829003601f168201915b5050505050815250509050919050565b6001600160a01b03841661176f5760405162461bcd60e51b815260040161045590612ff6565b6001600160a01b03851633148061178b575061178b8533610399565b6117e95760405162461bcd60e51b815260206004820152602960248201527f455243313135353a2063616c6c6572206973206e6f74206f776e6572206e6f7260448201526808185c1c1c9bdd995960ba1b6064820152608401610455565b336118098187876117f988612335565b61180288612335565b5050505050565b60008481526003602090815260408083206001600160a01b038a1684529091529020548381101561184c5760405162461bcd60e51b81526004016104559061303b565b6118568482613205565b60008681526003602090815260408083206001600160a01b038c811685529252808320939093558816815290812080548692906118949084906131d9565b909155505060408051868152602081018690526001600160a01b03808916928a821692918616917fc3d58168c5ae7397731d063d5bbf3d657854427343f4c083240f7aacaa2d0f62910160405180910390a46118f482888888888861238e565b50505050505050565b6000546001600160a01b031633146119275760405162461bcd60e51b815260040161045590613085565b6001600160a01b03811661198c5760405162461bcd60e51b815260206004820152602660248201527f4f776e61626c653a206e6577206f776e657220697320746865207a65726f206160448201526564647265737360d01b6064820152608401610455565b600080546040516001600160a01b03808516939216917f8be0079c531659141344cd1fd0a4f28419497f9722a3daafe3b4186f6b6457e091a3600080546001600160a01b0319166001600160a01b0392909216919091179055565b606081611a0b5750506040805180820190915260018152600360fc1b602082015290565b8160005b8115611a355780611a1f816132f7565b9150611a2e9050600a836131f1565b9150611a0f565b6000816001600160401b03811115611a5d57634e487b7160e01b600052604160045260246000fd5b6040519080825280601f01601f191660200182016040528015611a87576020820181803683370190505b5090505b8415611b0057611a9c600183613205565b9150611aa9600a86613312565b611ab49060306131d9565b60f81b818381518110611ad757634e487b7160e01b600052603260045260246000fd5b60200101906001600160f81b031916908160001a905350611af9600a866131f1565b9450611a8b565b949350505050565b6001600160a01b038116600090815260018301602052604081205415155b9392505050565b60005b8151811015611d035760006001600160a01b0316828281518110611b6457634e487b7160e01b600052603260045260246000fd5b6020026020010151600001516001600160a01b03161415611bde5760405162461bcd60e51b815260206004820152602e60248201527f4162737472616374526f79616c746965733a20526563697069656e742073686f60448201526d1d5b19081899481c1c995cd95b9d60921b6064820152608401610455565b818181518110611bfe57634e487b7160e01b600052603260045260246000fd5b6020026020010151602001516001600160601b031660001415611c7f5760405162461bcd60e51b815260206004820152603360248201527f4162737472616374526f79616c746965733a20526f79616c74792076616c75656044820152722073686f756c6420626520706f73697469766560681b6064820152608401610455565b60008381526006602052604090208251839083908110611caf57634e487b7160e01b600052603260045260246000fd5b6020908102919091018101518254600181018455600093845292829020815191909201516001600160601b0316600160a01b026001600160a01b039091161791015580611cfb816132f7565b915050611b30565b506111798282612458565b6001600160a01b038416611d345760405162461bcd60e51b815260040161045590613102565b33611d45816000876117f988612335565b60008481526003602090815260408083206001600160a01b038916845290915281208054859290611d779084906131d9565b909155505060408051858152602081018590526001600160a01b0380881692600092918516917fc3d58168c5ae7397731d063d5bbf3d657854427343f4c083240f7aacaa2d0f62910160405180910390a46118028160008787878761238e565b6001600160a01b0384163b15610d135760405163bc197c8160e01b81526001600160a01b0385169063bc197c8190611e1b9089908990889088908890600401612ea4565b602060405180830381600087803b158015611e3557600080fd5b505af1925050508015611e65575060408051601f3d908101601f19168201909252611e6291810190612ad0565b60015b611f1257611e71613368565b806308c379a01415611eab5750611e86613380565b80611e915750611ead565b8060405162461bcd60e51b81526004016104559190612f9b565b505b60405162461bcd60e51b815260206004820152603460248201527f455243313135353a207472616e7366657220746f206e6f6e20455243313135356044820152732932b1b2b4bb32b91034b6b83632b6b2b73a32b960611b6064820152608401610455565b6001600160e01b0319811663bc197c8160e01b146118f45760405162461bcd60e51b815260040161045590612fae565b600083815260066020526040812054905b8181101561180257600085815260066020526040902080546001600160a01b038616919083908110611f9557634e487b7160e01b600052603260045260246000fd5b6000918252602090912001546001600160a01b0316141561200b576000858152600660205260409020805484919083908110611fe157634e487b7160e01b600052603260045260246000fd5b600091825260209091200180546001600160a01b0319166001600160a01b03929092169190911790555b80612015816132f7565b915050611f53565b6000611b26836001600160a01b038416612495565b6000611b26836001600160a01b0384166125ac565b6001600160a01b0383166120a95760405162461bcd60e51b815260206004820152602360248201527f455243313135353a206275726e2066726f6d20746865207a65726f206164647260448201526265737360e81b6064820152608401610455565b336120d9818560006120ba87612335565b6120c387612335565b5050604080516020810190915260009052505050565b60008381526003602090815260408083206001600160a01b0388168452909152902054828110156121585760405162461bcd60e51b8152602060048201526024808201527f455243313135353a206275726e20616d6f756e7420657863656564732062616c604482015263616e636560e01b6064820152608401610455565b6121628382613205565b60008581526003602090815260408083206001600160a01b038a811680865291845282852095909555815189815292830188905292938616917fc3d58168c5ae7397731d063d5bbf3d657854427343f4c083240f7aacaa2d0f62910160405180910390a45050505050565b6001600160a01b0384166121f35760405162461bcd60e51b815260040161045590613102565b81518351146122145760405162461bcd60e51b8152600401610455906130ba565b3360005b84518110156122cd5783818151811061224157634e487b7160e01b600052603260045260246000fd5b60200260200101516003600087848151811061226d57634e487b7160e01b600052603260045260246000fd5b602002602001015181526020019081526020016000206000886001600160a01b03166001600160a01b0316815260200190815260200160002060008282546122b591906131d9565b909155508190506122c5816132f7565b915050612218565b50846001600160a01b031660006001600160a01b0316826001600160a01b03167f4a39dc06d4c0dbc64b70af90fd698a233a518aa5d07e595d983b8c0526c8f7fb878760405161231e929190612f6d565b60405180910390a461180281600087878787611dd7565b6040805160018082528183019092526060916000919060208083019080368337019050509050828160008151811061237d57634e487b7160e01b600052603260045260246000fd5b602090810291909101015292915050565b6001600160a01b0384163b15610d135760405163f23a6e6160e01b81526001600160a01b0385169063f23a6e61906123d29089908990889088908890600401612f02565b602060405180830381600087803b1580156123ec57600080fd5b505af192505050801561241c575060408051601f3d908101601f1916820190925261241991810190612ad0565b60015b61242857611e71613368565b6001600160e01b0319811663f23a6e6160e01b146118f45760405162461bcd60e51b815260040161045590612fae565b7f3fa96d7b6bcbfe71ef171666d84db3cf52fa2d1c8afdb1cc8e486177f208b7df8282604051612489929190613184565b60405180910390a15050565b600081815260018301602052604081205480156125a25760006124b9600183613205565b85549091506000906124cd90600190613205565b905060008660000182815481106124f457634e487b7160e01b600052603260045260246000fd5b906000526020600020015490508087600001848154811061252557634e487b7160e01b600052603260045260246000fd5b60009182526020808320909101929092558281526001890190915260409020849055865487908061256657634e487b7160e01b600052603160045260246000fd5b60019003818190600052602060002001600090559055866001016000878152602001908152602001600020600090556001945050505050610483565b6000915050610483565b60008181526001830160205260408120546125f357508154600181810184556000848152602080822090930184905584548482528286019093526040902091909155610483565b506000610483565b8280546126079061324c565b90600052602060002090601f016020900481019282612629576000855561266f565b82601f1061264257805160ff191683800117855561266f565b8280016001018555821561266f579182015b8281111561266f578251825591602001919060010190612654565b5061267b9291506126bc565b5090565b50805461268b9061324c565b6000825580601f1061269b575050565b601f0160209004906000526020600020908101906126b991906126bc565b50565b5b8082111561267b57600081556001016126bd565b600082601f8301126126e1578081fd5b813560206126ee826131b6565b6040516126fb82826132cb565b8381528281019150858301600585901b8701840188101561271a578586fd5b855b858110156127385781358452928401929084019060010161271c565b5090979650505050505050565b8035801515811461103257600080fd5b600082601f830112612765578081fd5b81356001600160401b0381111561277e5761277e613352565b604051612795601f8301601f1916602001826132cb565b8181528460208386010111156127a9578283fd5b816020850160208301379081016020019190915292915050565b6000602082840312156127d4578081fd5b8135611b2681613409565b600080604083850312156127f1578081fd5b82356127fc81613409565b9150602083013561280c81613409565b809150509250929050565b600080600080600060a0868803121561282e578081fd5b853561283981613409565b9450602086013561284981613409565b935060408601356001600160401b0380821115612864578283fd5b61287089838a016126d1565b94506060880135915080821115612885578283fd5b61289189838a016126d1565b935060808801359150808211156128a6578283fd5b506128b388828901612755565b9150509295509295909350565b600080600080600060a086880312156128d7578081fd5b85356128e281613409565b945060208601356128f281613409565b9350604086013592506060860135915060808601356001600160401b0381111561291a578182fd5b6128b388828901612755565b60008060408385031215612938578182fd5b823561294381613409565b915061295160208401612745565b90509250929050565b6000806040838503121561296c578182fd5b823561297781613409565b946020939093013593505050565b60008060408385031215612997578182fd5b82356001600160401b03808211156129ad578384fd5b818501915085601f8301126129c0578384fd5b813560206129cd826131b6565b6040516129da82826132cb565b8381528281019150858301600585901b870184018b10156129f9578889fd5b8896505b84871015612a24578035612a1081613409565b8352600196909601959183019183016129fd565b5096505086013592505080821115612a3a578283fd5b50612a47858286016126d1565b9150509250929050565b60008060408385031215612a63578182fd5b82356001600160401b0380821115612a79578384fd5b612a85868387016126d1565b93506020850135915080821115612a3a578283fd5b600060208284031215612aab578081fd5b611b2682612745565b600060208284031215612ac5578081fd5b8135611b268161341e565b600060208284031215612ae1578081fd5b8151611b268161341e565b600060208284031215612afd578081fd5b81356001600160401b03811115612b12578182fd5b611b0084828501612755565b60006020808385031215612b30578182fd5b82356001600160401b0380821115612b46578384fd5b9084019060808287031215612b59578384fd5b60408051612b6681613287565b8335815284840135858201528184013583811115612b82578687fd5b612b8e89828701612755565b8383015250606084013583811115612ba4578687fd5b80850194505087601f850112612bb8578586fd5b83359250612bc5836131b6565b8251612bd182826132cb565b8481528681019150858701600686901b870188018b1015612bf0578889fd5b8896505b85871015612c525784818c031215612c0a578889fd5b8451612c15816132ac565b8135612c2081613409565b8152818901356001600160601b0381168114612c3a578a8bfd5b818a0152835260019690960195918701918401612bf4565b50606083015250979650505050505050565b600060208284031215612c75578081fd5b5035919050565b600080600060608486031215612c90578081fd5b833592506020840135612ca281613409565b91506040840135612cb281613409565b809150509250925092565b60008060408385031215612ccf578182fd5b50508035926020909101359150565b6000815180845260208085019450808401835b83811015612d2a57815180516001600160a01b031688528301516001600160601b03168388015260409096019590820190600101612cf1565b509495945050505050565b6000815180845260208085019450808401835b83811015612d2a57815187529582019590820190600101612d48565b60008151808452612d7c81602086016020860161321c565b601f01601f19169290920160200192915050565b815160009082906020808601845b83811015612dba57815185529382019390820190600101612d9e565b50929695505050505050565b60008351612dd881846020880161321c565b835190830190612dec81836020880161321c565b01949350505050565b600083516020612e08828583890161321c565b8454918401918390600181811c9080831680612e2557607f831692505b858310811415612e4357634e487b7160e01b88526022600452602488fd5b808015612e575760018114612e6857612e94565b60ff19851688528388019550612e94565b60008b815260209020895b85811015612e8c5781548a820152908401908801612e73565b505083880195505b50939a9950505050505050505050565b6001600160a01b0386811682528516602082015260a060408201819052600090612ed090830186612d35565b8281036060840152612ee28186612d35565b90508281036080840152612ef68185612d64565b98975050505050505050565b6001600160a01b03868116825285166020820152604081018490526060810183905260a060808201819052600090612f3c90830184612d64565b979650505050505050565b602081526000611b266020830184612cde565b602081526000611b266020830184612d35565b604081526000612f806040830185612d35565b8281036020840152612f928185612d35565b95945050505050565b602081526000611b266020830184612d64565b60208082526028908201527f455243313135353a204552433131353552656365697665722072656a656374656040820152676420746f6b656e7360c01b606082015260800190565b60208082526025908201527f455243313135353a207472616e7366657220746f20746865207a65726f206164604082015264647265737360d81b606082015260800190565b6020808252602a908201527f455243313135353a20696e73756666696369656e742062616c616e636520666f60408201526939103a3930b739b332b960b11b606082015260800190565b6020808252818101527f4f776e61626c653a2063616c6c6572206973206e6f7420746865206f776e6572604082015260600190565b60208082526028908201527f455243313135353a2069647320616e6420616d6f756e7473206c656e677468206040820152670dad2e6dac2e8c6d60c31b606082015260800190565b60208082526021908201527f455243313135353a206d696e7420746f20746865207a65726f206164647265736040820152607360f81b606082015260800190565b6020815260018060a01b038251166020820152602082015160408201526040820151606082015260006060830151608080840152611b0060a0840182612d64565b828152604060208201526000611b006040830184612cde565b828152604060208201526000611b006040830184612d64565b60006001600160401b038211156131cf576131cf613352565b5060051b60200190565b600082198211156131ec576131ec613326565b500190565b6000826132005761320061333c565b500490565b60008282101561321757613217613326565b500390565b60005b8381101561323757818101518382015260200161321f565b83811115613246576000848401525b50505050565b600181811c9082168061326057607f821691505b6020821081141561328157634e487b7160e01b600052602260045260246000fd5b50919050565b608081018181106001600160401b03821117156132a6576132a6613352565b60405250565b604081018181106001600160401b03821117156132a6576132a6613352565b601f8201601f191681016001600160401b03811182821017156132f0576132f0613352565b6040525050565b600060001982141561330b5761330b613326565b5060010190565b6000826133215761332161333c565b500690565b634e487b7160e01b600052601160045260246000fd5b634e487b7160e01b600052601260045260246000fd5b634e487b7160e01b600052604160045260246000fd5b600060033d111561337d57600481823e5160e01c5b90565b600060443d101561338e5790565b6040516003193d81016004833e81513d6001600160401b0381602484011181841117156133bd57505050505090565b82850191508151818111156133d55750505050505090565b843d87010160208285010111156133ef5750505050505090565b6133fe602082860101876132cb565b509095945050505050565b6001600160a01b03811681146126b957600080fd5b6001600160e01b0319811681146126b957600080fdfea164736f6c6343000804000a",
  "linkReferences": {},
  "deployedLinkReferences": {}
}