{
  "_format": "hh-sol-artifact-1",
  "contractName": "Inflow1155BC",
  "sourceName": "contracts/token/nft/Inflow1155BC.sol",
  "abi": [
    {
      "inputs": [
        {
          "internalType": "address",
          "name": "_collateral",
          "type": "address"
        }
      ],
      "stateMutability": "nonpayable",
      "type": "constructor"
    },
    {
      "anonymous": false,
      "inputs": [
        {
          "indexed": true,
          "internalType": "address",
          "name": "account",
          "type": "address"
        },
        {
          "indexed": true,
          "internalType": "address",
          "name": "operator",
          "type": "address"
        },
        {
          "indexed": false,
          "internalType": "bool",
          "name": "approved",
          "type": "bool"
        }
      ],
      "name": "ApprovalForAll",
      "type": "event"
    },
    {
      "anonymous": false,
      "inputs": [
        {
          "indexed": true,
          "internalType": "address",
          "name": "burner",
          "type": "address"
        },
        {
          "indexed": true,
          "internalType": "uint256",
          "name": "tokenId",
          "type": "uint256"
        },
        {
          "indexed": false,
          "internalType": "uint256",
          "name": "priceReceived",
          "type": "uint256"
        },
        {
          "indexed": false,
          "internalType": "uint256",
          "name": "nextMintPrice",
          "type": "uint256"
        },
        {
          "indexed": false,
          "internalType": "uint256",
          "name": "nextBurnPrice",
          "type": "uint256"
        },
        {
          "indexed": false,
          "internalType": "uint256",
          "name": "tokenSupply",
          "type": "uint256"
        },
        {
          "indexed": false,
          "internalType": "uint256",
          "name": "reserve",
          "type": "uint256"
        }
      ],
      "name": "Burned",
      "type": "event"
    },
    {
      "anonymous": false,
      "inputs": [
        {
          "indexed": true,
          "internalType": "address",
          "name": "creator",
          "type": "address"
        },
        {
          "indexed": true,
          "internalType": "uint256",
          "name": "tokenId",
          "type": "uint256"
        },
        {
          "indexed": false,
          "internalType": "enum IInflow1155BC.Curve",
          "name": "curve",
          "type": "uint8"
        },
        {
          "indexed": false,
          "internalType": "address",
          "name": "social",
          "type": "address"
        },
        {
          "indexed": false,
          "internalType": "uint256",
          "name": "price",
          "type": "uint256"
        },
        {
          "indexed": false,
          "internalType": "uint256",
          "name": "socialBalance",
          "type": "uint256"
        },
        {
          "indexed": false,
          "internalType": "uint256",
          "name": "maxSupply",
          "type": "uint256"
        },
        {
          "indexed": false,
          "internalType": "string",
          "name": "uri",
          "type": "string"
        }
      ],
      "name": "Created",
      "type": "event"
    },
    {
      "anonymous": false,
      "inputs": [
        {
          "indexed": true,
          "internalType": "address",
          "name": "minter",
          "type": "address"
        },
        {
          "indexed": true,
          "internalType": "uint256",
          "name": "tokenId",
          "type": "uint256"
        },
        {
          "indexed": false,
          "internalType": "uint256",
          "name": "pricePaid",
          "type": "uint256"
        },
        {
          "indexed": false,
          "internalType": "uint256",
          "name": "nextMintPrice",
          "type": "uint256"
        },
        {
          "indexed": false,
          "internalType": "uint256",
          "name": "nextBurnPrice",
          "type": "uint256"
        },
        {
          "indexed": false,
          "internalType": "uint256",
          "name": "tokenSupply",
          "type": "uint256"
        },
        {
          "indexed": false,
          "internalType": "uint256",
          "name": "royaltyPaid",
          "type": "uint256"
        },
        {
          "indexed": false,
          "internalType": "uint256",
          "name": "reserve",
          "type": "uint256"
        },
        {
          "indexed": true,
          "internalType": "address",
          "name": "royaltyRecipient",
          "type": "address"
        }
      ],
      "name": "Minted",
      "type": "event"
    },
    {
      "anonymous": false,
      "inputs": [
        {
          "indexed": true,
          "internalType": "address",
          "name": "previousOwner",
          "type": "address"
        },
        {
          "indexed": true,
          "internalType": "address",
          "name": "newOwner",
          "type": "address"
        }
      ],
      "name": "OwnershipTransferred",
      "type": "event"
    },
    {
      "anonymous": false,
      "inputs": [
        {
          "indexed": false,
          "internalType": "uint256",
          "name": "tokenId",
          "type": "uint256"
        },
        {
          "components": [
            {
              "internalType": "address payable",
              "name": "account",
              "type": "address"
            },
            {
              "internalType": "uint96",
              "name": "value",
              "type": "uint96"
            }
          ],
          "indexed": false,
          "internalType": "struct LibPart.Part[]",
          "name": "royalties",
          "type": "tuple[]"
        }
      ],
      "name": "RoyaltiesSet",
      "type": "event"
    },
    {
      "anonymous": false,
      "inputs": [
        {
          "indexed": true,
          "internalType": "address",
          "name": "operator",
          "type": "address"
        },
        {
          "indexed": true,
          "internalType": "address",
          "name": "from",
          "type": "address"
        },
        {
          "indexed": true,
          "internalType": "address",
          "name": "to",
          "type": "address"
        },
        {
          "indexed": false,
          "internalType": "uint256[]",
          "name": "ids",
          "type": "uint256[]"
        },
        {
          "indexed": false,
          "internalType": "uint256[]",
          "name": "values",
          "type": "uint256[]"
        }
      ],
      "name": "TransferBatch",
      "type": "event"
    },
    {
      "anonymous": false,
      "inputs": [
        {
          "indexed": true,
          "internalType": "address",
          "name": "operator",
          "type": "address"
        },
        {
          "indexed": true,
          "internalType": "address",
          "name": "from",
          "type": "address"
        },
        {
          "indexed": true,
          "internalType": "address",
          "name": "to",
          "type": "address"
        },
        {
          "indexed": false,
          "internalType": "uint256",
          "name": "id",
          "type": "uint256"
        },
        {
          "indexed": false,
          "internalType": "uint256",
          "name": "value",
          "type": "uint256"
        }
      ],
      "name": "TransferSingle",
      "type": "event"
    },
    {
      "anonymous": false,
      "inputs": [
        {
          "indexed": false,
          "internalType": "string",
          "name": "value",
          "type": "string"
        },
        {
          "indexed": true,
          "internalType": "uint256",
          "name": "id",
          "type": "uint256"
        }
      ],
      "name": "URI",
      "type": "event"
    },
    {
      "anonymous": false,
      "inputs": [
        {
          "indexed": true,
          "internalType": "address",
          "name": "account",
          "type": "address"
        }
      ],
      "name": "Unwhitelisted",
      "type": "event"
    },
    {
      "anonymous": false,
      "inputs": [
        {
          "indexed": true,
          "internalType": "address",
          "name": "account",
          "type": "address"
        }
      ],
      "name": "Whitelisted",
      "type": "event"
    },
    {
      "inputs": [
        {
          "internalType": "address",
          "name": "account",
          "type": "address"
        },
        {
          "internalType": "uint256",
          "name": "id",
          "type": "uint256"
        }
      ],
      "name": "balanceOf",
      "outputs": [
        {
          "internalType": "uint256",
          "name": "",
          "type": "uint256"
        }
      ],
      "stateMutability": "view",
      "type": "function"
    },
    {
      "inputs": [
        {
          "internalType": "address[]",
          "name": "accounts",
          "type": "address[]"
        },
        {
          "internalType": "uint256[]",
          "name": "ids",
          "type": "uint256[]"
        }
      ],
      "name": "balanceOfBatch",
      "outputs": [
        {
          "internalType": "uint256[]",
          "name": "",
          "type": "uint256[]"
        }
      ],
      "stateMutability": "view",
      "type": "function"
    },
    {
      "inputs": [],
      "name": "baseUri",
      "outputs": [
        {
          "internalType": "string",
          "name": "",
          "type": "string"
        }
      ],
      "stateMutability": "view",
      "type": "function"
    },
    {
      "inputs": [
        {
          "internalType": "uint256",
          "name": "tokenId",
          "type": "uint256"
        },
        {
          "internalType": "uint256",
          "name": "minimumSupply",
          "type": "uint256"
        }
      ],
      "name": "burn",
      "outputs": [],
      "stateMutability": "nonpayable",
      "type": "function"
    },
    {
      "inputs": [],
      "name": "collateral",
      "outputs": [
        {
          "internalType": "contract IERC20",
          "name": "",
          "type": "address"
        }
      ],
      "stateMutability": "view",
      "type": "function"
    },
    {
      "inputs": [
        {
          "components": [
            {
              "internalType": "enum IInflow1155BC.Curve",
              "name": "curve",
              "type": "uint8"
            },
            {
              "internalType": "address",
              "name": "social",
              "type": "address"
            },
            {
              "internalType": "uint256",
              "name": "price",
              "type": "uint256"
            },
            {
              "internalType": "uint256",
              "name": "socialBalance",
              "type": "uint256"
            },
            {
              "internalType": "uint256",
              "name": "maxSupply",
              "type": "uint256"
            },
            {
              "internalType": "string",
              "name": "uri",
              "type": "string"
            },
            {
              "components": [
                {
                  "internalType": "address payable",
                  "name": "account",
                  "type": "address"
                },
                {
                  "internalType": "uint96",
                  "name": "value",
                  "type": "uint96"
                }
              ],
              "internalType": "struct LibPart.Part[]",
              "name": "royalties",
              "type": "tuple[]"
            }
          ],
          "internalType": "struct IInflow1155BC.CreateData",
          "name": "data",
          "type": "tuple"
        }
      ],
      "name": "create",
      "outputs": [
        {
          "internalType": "uint256",
          "name": "tokenId",
          "type": "uint256"
        }
      ],
      "stateMutability": "nonpayable",
      "type": "function"
    },
    {
      "inputs": [],
      "name": "createPrice",
      "outputs": [
        {
          "internalType": "uint256",
          "name": "",
          "type": "uint256"
        }
      ],
      "stateMutability": "view",
      "type": "function"
    },
    {
      "inputs": [
        {
          "internalType": "enum IInflow1155BC.Curve",
          "name": "curve",
          "type": "uint8"
        },
        {
          "internalType": "uint256",
          "name": "supply",
          "type": "uint256"
        }
      ],
      "name": "getBurnPrice",
      "outputs": [
        {
          "internalType": "uint256",
          "name": "",
          "type": "uint256"
        }
      ],
      "stateMutability": "pure",
      "type": "function"
    },
    {
      "inputs": [
        {
          "internalType": "uint256",
          "name": "fee",
          "type": "uint256"
        }
      ],
      "name": "getCreatorFee",
      "outputs": [
        {
          "internalType": "uint256",
          "name": "",
          "type": "uint256"
        }
      ],
      "stateMutability": "pure",
      "type": "function"
    },
    {
      "inputs": [
        {
          "internalType": "enum IInflow1155BC.Curve",
          "name": "curve",
          "type": "uint8"
        },
        {
          "internalType": "uint256",
          "name": "supply",
          "type": "uint256"
        }
      ],
      "name": "getMintPrice",
      "outputs": [
        {
          "internalType": "uint256",
          "name": "price",
          "type": "uint256"
        }
      ],
      "stateMutability": "pure",
      "type": "function"
    },
    {
      "inputs": [
        {
          "internalType": "uint256",
          "name": "tokenId",
          "type": "uint256"
        }
      ],
      "name": "getRoyalties",
      "outputs": [
        {
          "components": [
            {
              "internalType": "address payable",
              "name": "account",
              "type": "address"
            },
            {
              "internalType": "uint96",
              "name": "value",
              "type": "uint96"
            }
          ],
          "internalType": "struct LibPart.Part[]",
          "name": "",
          "type": "tuple[]"
        }
      ],
      "stateMutability": "view",
      "type": "function"
    },
    {
      "inputs": [
        {
          "internalType": "uint256",
          "name": "tokenId",
          "type": "uint256"
        }
      ],
      "name": "getToken",
      "outputs": [
        {
          "components": [
            {
              "internalType": "enum IInflow1155BC.Curve",
              "name": "curve",
              "type": "uint8"
            },
            {
              "internalType": "address",
              "name": "creator",
              "type": "address"
            },
            {
              "internalType": "contract ISocialToken",
              "name": "social",
              "type": "address"
            },
            {
              "internalType": "uint256",
              "name": "price",
              "type": "uint256"
            },
            {
              "internalType": "uint256",
              "name": "socialBalance",
              "type": "uint256"
            },
            {
              "internalType": "uint256",
              "name": "maxSupply",
              "type": "uint256"
            },
            {
              "components": [
                {
                  "internalType": "uint256",
                  "name": "_value",
                  "type": "uint256"
                }
              ],
              "internalType": "struct Counters.Counter",
              "name": "supply",
              "type": "tuple"
            },
            {
              "internalType": "string",
              "name": "uri",
              "type": "string"
            }
          ],
          "internalType": "struct IInflow1155BC.Token",
          "name": "",
          "type": "tuple"
        }
      ],
      "stateMutability": "view",
      "type": "function"
    },
    {
      "inputs": [
        {
          "internalType": "address",
          "name": "account",
          "type": "address"
        },
        {
          "internalType": "address",
          "name": "operator",
          "type": "address"
        }
      ],
      "name": "isApprovedForAll",
      "outputs": [
        {
          "internalType": "bool",
          "name": "",
          "type": "bool"
        }
      ],
      "stateMutability": "view",
      "type": "function"
    },
    {
      "inputs": [
        {
          "internalType": "address",
          "name": "account",
          "type": "address"
        }
      ],
      "name": "isWhitelisted",
      "outputs": [
        {
          "internalType": "bool",
          "name": "",
          "type": "bool"
        }
      ],
      "stateMutability": "view",
      "type": "function"
    },
    {
      "inputs": [
        {
          "internalType": "uint256",
          "name": "tokenId",
          "type": "uint256"
        }
      ],
      "name": "mint",
      "outputs": [],
      "stateMutability": "nonpayable",
      "type": "function"
    },
    {
      "inputs": [],
      "name": "owner",
      "outputs": [
        {
          "internalType": "address",
          "name": "",
          "type": "address"
        }
      ],
      "stateMutability": "view",
      "type": "function"
    },
    {
      "inputs": [],
      "name": "renounceOwnership",
      "outputs": [],
      "stateMutability": "nonpayable",
      "type": "function"
    },
    {
      "inputs": [],
      "name": "reserve",
      "outputs": [
        {
          "internalType": "uint256",
          "name": "",
          "type": "uint256"
        }
      ],
      "stateMutability": "view",
      "type": "function"
    },
    {
      "inputs": [
        {
          "internalType": "uint256",
          "name": "",
          "type": "uint256"
        },
        {
          "internalType": "uint256",
          "name": "",
          "type": "uint256"
        }
      ],
      "name": "royalties",
      "outputs": [
        {
          "internalType": "address payable",
          "name": "account",
          "type": "address"
        },
        {
          "internalType": "uint96",
          "name": "value",
          "type": "uint96"
        }
      ],
      "stateMutability": "view",
      "type": "function"
    },
    {
      "inputs": [
        {
          "internalType": "address",
          "name": "from",
          "type": "address"
        },
        {
          "internalType": "address",
          "name": "to",
          "type": "address"
        },
        {
          "internalType": "uint256[]",
          "name": "ids",
          "type": "uint256[]"
        },
        {
          "internalType": "uint256[]",
          "name": "amounts",
          "type": "uint256[]"
        },
        {
          "internalType": "bytes",
          "name": "data",
          "type": "bytes"
        }
      ],
      "name": "safeBatchTransferFrom",
      "outputs": [],
      "stateMutability": "nonpayable",
      "type": "function"
    },
    {
      "inputs": [
        {
          "internalType": "address",
          "name": "from",
          "type": "address"
        },
        {
          "internalType": "address",
          "name": "to",
          "type": "address"
        },
        {
          "internalType": "uint256",
          "name": "id",
          "type": "uint256"
        },
        {
          "internalType": "uint256",
          "name": "amount",
          "type": "uint256"
        },
        {
          "internalType": "bytes",
          "name": "data",
          "type": "bytes"
        }
      ],
      "name": "safeTransferFrom",
      "outputs": [],
      "stateMutability": "nonpayable",
      "type": "function"
    },
    {
      "inputs": [
        {
          "internalType": "address",
          "name": "operator",
          "type": "address"
        },
        {
          "internalType": "bool",
          "name": "approved",
          "type": "bool"
        }
      ],
      "name": "setApprovalForAll",
      "outputs": [],
      "stateMutability": "nonpayable",
      "type": "function"
    },
    {
      "inputs": [
        {
          "internalType": "string",
          "name": "_baseUri",
          "type": "string"
        }
      ],
      "name": "setBaseUri",
      "outputs": [],
      "stateMutability": "nonpayable",
      "type": "function"
    },
    {
      "inputs": [
        {
          "internalType": "bool",
          "name": "enabled",
          "type": "bool"
        }
      ],
      "name": "setContractMintEnabled",
      "outputs": [],
      "stateMutability": "nonpayable",
      "type": "function"
    },
    {
      "inputs": [
        {
          "internalType": "uint256",
          "name": "price",
          "type": "uint256"
        }
      ],
      "name": "setCreatePrice",
      "outputs": [],
      "stateMutability": "nonpayable",
      "type": "function"
    },
    {
      "inputs": [
        {
          "internalType": "bool",
          "name": "enabled",
          "type": "bool"
        }
      ],
      "name": "setWhitelistEnabled",
      "outputs": [],
      "stateMutability": "nonpayable",
      "type": "function"
    },
    {
      "inputs": [
        {
          "internalType": "bytes4",
          "name": "interfaceId",
          "type": "bytes4"
        }
      ],
      "name": "supportsInterface",
      "outputs": [
        {
          "internalType": "bool",
          "name": "",
          "type": "bool"
        }
      ],
      "stateMutability": "view",
      "type": "function"
    },
    {
      "inputs": [
        {
          "internalType": "address",
          "name": "newOwner",
          "type": "address"
        }
      ],
      "name": "transferOwnership",
      "outputs": [],
      "stateMutability": "nonpayable",
      "type": "function"
    },
    {
      "inputs": [
        {
          "internalType": "address",
          "name": "account",
          "type": "address"
        }
      ],
      "name": "unwhitelist",
      "outputs": [
        {
          "internalType": "bool",
          "name": "success",
          "type": "bool"
        }
      ],
      "stateMutability": "nonpayable",
      "type": "function"
    },
    {
      "inputs": [
        {
          "internalType": "uint256",
          "name": "tokenId",
          "type": "uint256"
        },
        {
          "internalType": "address",
          "name": "from",
          "type": "address"
        },
        {
          "internalType": "address",
          "name": "to",
          "type": "address"
        }
      ],
      "name": "updateRoyaltyAccount",
      "outputs": [],
      "stateMutability": "nonpayable",
      "type": "function"
    },
    {
      "inputs": [
        {
          "internalType": "uint256",
          "name": "tokenId",
          "type": "uint256"
        }
      ],
      "name": "uri",
      "outputs": [
        {
          "internalType": "string",
          "name": "_uri",
          "type": "string"
        }
      ],
      "stateMutability": "view",
      "type": "function"
    },
    {
      "inputs": [
        {
          "internalType": "address",
          "name": "account",
          "type": "address"
        }
      ],
      "name": "whitelist",
      "outputs": [
        {
          "internalType": "bool",
          "name": "success",
          "type": "bool"
        }
      ],
      "stateMutability": "nonpayable",
      "type": "function"
    },
    {
      "inputs": [],
      "name": "withdraw",
      "outputs": [],
      "stateMutability": "nonpayable",
      "type": "function"
    }
  ],
  "bytecode": "0x60806040526004805460ff60a01b1916600160a01b1790556302faf0806009553480156200002c57600080fd5b50604051620044c2380380620044c28339810160408190526200004f916200019d565b6040805160208101909152600081526200006981620000de565b506001600355600480546001600160a01b0319163390811790915560405181906000907f8be0079c531659141344cd1fd0a4f28419497f9722a3daafe3b4186f6b6457e0908290a350600880546001600160a01b0390921661010002610100600160a81b03199092169190911790556200020a565b8051620000f3906002906020840190620000f7565b5050565b8280546200010590620001cd565b90600052602060002090601f01602090048101928262000129576000855562000174565b82601f106200014457805160ff191683800117855562000174565b8280016001018555821562000174579182015b828111156200017457825182559160200191906001019062000157565b506200018292915062000186565b5090565b5b8082111562000182576000815560010162000187565b600060208284031215620001af578081fd5b81516001600160a01b0381168114620001c6578182fd5b9392505050565b600181811c90821680620001e257607f821691505b602082108114156200020457634e487b7160e01b600052602260045260246000fd5b50919050565b6142a8806200021a6000396000f3fe608060405234801561001057600080fd5b50600436106101fa5760003560e01c80639a5904271161011a578063c2992300116100ad578063e4b50cb81161007c578063e4b50cb814610468578063e985e9c514610488578063f1af9d3f146104c4578063f242432a146104d7578063f2fde38b146104ea57600080fd5b8063c299230014610421578063ca15bcc314610434578063cd3293de14610447578063d8dfeb451461045057600080fd5b8063a0bcfc7f116100e9578063a0bcfc7f146103c8578063a22cb465146103db578063b390c0ab146103ee578063bb3bafd61461040157600080fd5b80639a590427146103875780639abc83201461039a5780639b19251a146103a2578063a0712d68146103b557600080fd5b80633af32abf11610192578063715018a611610161578063715018a61461030d5780638492db16146103155780638924af74146103285780638da5cb5b1461036257600080fd5b80633af32abf146102c95780633ccfd60b146102dc5780634e1273f4146102e45780635109095d1461030457600080fd5b80630e89341c116101ce5780630e89341c146102705780632eb2c2d6146102905780632ede2fea146102a3578063350f0802146102b657600080fd5b8062fdd58e146101ff57806301ffc9a714610225578063052d9e7e14610248578063099a51a11461025d575b600080fd5b61021261020d3660046136eb565b6104fd565b6040519081526020015b60405180910390f35b61023861023336600461381a565b610597565b604051901515815260200161021c565b61025b6102563660046137e2565b6105a2565b005b61025b61026b3660046137e2565b6105ea565b61028361027e366004613992565b610627565b60405161021c9190613c90565b61025b61029e3660046135af565b6108bf565b6102126102b136600461386c565b610b86565b61025b6102c43660046139c2565b610bb4565b6102386102d736600461355b565b610c2f565b61025b610c3c565b6102f76102f2366004613716565b610d3f565b60405161021c9190613bee565b61021260095481565b61025b610ea0565b6102126103233660046138f3565b610f14565b61033b610336366004613a03565b61139d565b604080516001600160a01b0390931683526001600160601b0390911660208301520161021c565b6004546001600160a01b03165b6040516001600160a01b03909116815260200161021c565b61023861039536600461355b565b6113e6565b610283611460565b6102386103b036600461355b565b6114ee565b61025b6103c3366004613992565b611567565b61025b6103d6366004613887565b6118e7565b61025b6103e93660046136be565b61191d565b61025b6103fc366004613a03565b6119f4565b61041461040f366004613992565b611cd9565b60405161021c9190613bdb565b61025b61042f366004613992565b611d68565b61021261044236600461386c565b611d97565b610212600a5481565b60085461036f9061010090046001600160a01b031681565b61047b610476366004613992565b611e19565b60405161021c9190613e28565b610238610496366004613577565b6001600160a01b03918216600090815260016020908152604080832093909416825291909152205460ff1690565b6102126104d2366004613992565b611f7d565b61025b6104e5366004613658565b611f96565b61025b6104f836600461355b565b612146565b60006001600160a01b03831661056e5760405162461bcd60e51b815260206004820152602b60248201527f455243313135353a2062616c616e636520717565727920666f7220746865207a60448201526a65726f206164647265737360a81b60648201526084015b60405180910390fd5b506000818152602081815260408083206001600160a01b03861684529091529020545b92915050565b600061059182612231565b6004546001600160a01b031633146105cc5760405162461bcd60e51b815260040161056590613dbc565b60048054911515600160a01b0260ff60a01b19909216919091179055565b6004546001600160a01b031633146106145760405162461bcd60e51b815260040161056590613dbc565b6008805460ff1916911515919091179055565b6000818152600c6020526040808220815161010081019092528054606093929190829060ff16600281111561066c57634e487b7160e01b600052602160045260246000fd5b600281111561068b57634e487b7160e01b600052602160045260246000fd5b815281546001600160a01b03610100909104811660208084019190915260018401549091166040808401919091526002840154606084015260038401546080840152600484015460a0840152805191820190526005830154815260c082015260068201805460e0909201916106ff906140e9565b80601f016020809104026020016040519081016040528092919081815260200182805461072b906140e9565b80156107785780601f1061074d57610100808354040283529160200191610778565b820191906000526020600020905b81548152906001019060200180831161075b57829003601f168201915b5050509190925250505060208101519091506001600160a01b03166107af5760405162461bcd60e51b815260040161056590613d7a565b6000600d80546107be906140e9565b80601f01602080910402602001604051908101604052809291908181526020018280546107ea906140e9565b80156108375780601f1061080c57610100808354040283529160200191610837565b820191906000526020600020905b81548152906001019060200180831161081a57829003601f168201915b50505050509050805160001415610854578160e0015192506108b8565b60e0820151511561088b5760e0820151604051610875918391602001613b14565b60405160208183030381529060405292506108b8565b8061089585612281565b6040516020016108a6929190613b14565b60405160208183030381529060405292505b5050919050565b81518351146109215760405162461bcd60e51b815260206004820152602860248201527f455243313135353a2069647320616e6420616d6f756e7473206c656e677468206044820152670dad2e6dac2e8c6d60c31b6064820152608401610565565b6001600160a01b0384166109475760405162461bcd60e51b815260040161056590613ceb565b6001600160a01b03851633148061096357506109638533610496565b6109ca5760405162461bcd60e51b815260206004820152603260248201527f455243313135353a207472616e736665722063616c6c6572206973206e6f74206044820152711bdddb995c881b9bdc88185c1c1c9bdd995960721b6064820152608401610565565b3360005b8451811015610b185760008582815181106109f957634e487b7160e01b600052603260045260246000fd5b602002602001015190506000858381518110610a2557634e487b7160e01b600052603260045260246000fd5b602090810291909101810151600084815280835260408082206001600160a01b038e168352909352919091205490915081811015610a755760405162461bcd60e51b815260040161056590613d30565b610a7f82826140a6565b60008085815260200190815260200160002060008c6001600160a01b03166001600160a01b03168152602001908152602001600020819055508160008085815260200190815260200160002060008b6001600160a01b03166001600160a01b031681526020019081526020016000206000828254610afd9190613f70565b9250508190555050505080610b1190614150565b90506109ce565b50846001600160a01b0316866001600160a01b0316826001600160a01b03167f4a39dc06d4c0dbc64b70af90fd698a233a518aa5d07e595d983b8c0526c8f7fb8787604051610b68929190613c01565b60405180910390a4610b7e81878787878761239a565b505050505050565b600080610b938484611d97565b90506064610ba2826055614087565b610bac9190613f88565b949350505050565b336001600160a01b03831614610c1f5760405162461bcd60e51b815260206004820152602a60248201527f496e666c6f773131353542433a206f6e6c792063757272656e7420726f79616c6044820152691d1e481858d8dbdd5b9d60b21b6064820152608401610565565b610c2a838383612505565b505050565b60006105916005836125e0565b6004546001600160a01b03163314610c665760405162461bcd60e51b815260040161056590613dbc565b60026003541415610c895760405162461bcd60e51b815260040161056590613df1565b6002600355600854600a546040516370a0823160e01b81523060048201526101009092046001600160a01b0316916000919083906370a082319060240160206040518083038186803b158015610cde57600080fd5b505afa158015610cf2573d6000803e3d6000fd5b505050506040513d601f19601f82011682018060405250810190610d1691906139aa565b610d2091906140a6565b9050610d366001600160a01b0383163383612602565b50506001600355565b60608151835114610da45760405162461bcd60e51b815260206004820152602960248201527f455243313135353a206163636f756e747320616e6420696473206c656e677468604482015268040dad2e6dac2e8c6d60bb1b6064820152608401610565565b600083516001600160401b03811115610dcd57634e487b7160e01b600052604160045260246000fd5b604051908082528060200260200182016040528015610df6578160200160208202803683370190505b50905060005b8451811015610e9857610e5d858281518110610e2857634e487b7160e01b600052603260045260246000fd5b6020026020010151858381518110610e5057634e487b7160e01b600052603260045260246000fd5b60200260200101516104fd565b828281518110610e7d57634e487b7160e01b600052603260045260246000fd5b6020908102919091010152610e9181614150565b9050610dfc565b509392505050565b6004546001600160a01b03163314610eca5760405162461bcd60e51b815260040161056590613dbc565b6004546040516000916001600160a01b0316907f8be0079c531659141344cd1fd0a4f28419497f9722a3daafe3b4186f6b6457e0908390a3600480546001600160a01b0319169055565b600060026003541415610f395760405162461bcd60e51b815260040161056590613df1565b6002600355600454600160a01b900460ff1615610fa757610f5b6005336125e0565b610fa75760405162461bcd60e51b815260206004820152601f60248201527f57686974656c69737461626c653a2077686974656c6973746564206f6e6c79006044820152606401610565565b6000610fb66020840184613852565b6002811115610fd557634e487b7160e01b600052602160045260246000fd5b146110315760408201351561102c5760405162461bcd60e51b815260206004820152601e60248201527f496e666c6f773131353542433a206e65656473207a65726f20707269636500006044820152606401610565565b611090565b60008260400135116110905760405162461bcd60e51b815260206004820152602260248201527f496e666c6f773131353542433a206e65656473206e6f6e2d7a65726f20707269604482015261636560f01b6064820152608401610565565b60008260800135116110e45760405162461bcd60e51b815260206004820181905260248201527f496e666c6f773131353542433a20696e76616c6964206d617820737570706c796044820152606401610565565b60106110f360c0840184613ec2565b905011156111525760405162461bcd60e51b815260206004820152602660248201527f496e666c6f773131353542433a20696e76616c696420726f79616c74696573206044820152650d8cadccee8d60d31b6064820152608401610565565b611160600b80546001019055565b50600b546000818152600c602090815260409091209061118290840184613852565b8154829060ff191660018360028111156111ac57634e487b7160e01b600052602160045260246000fd5b02179055508054610100600160a81b03191633610100021781556111d6604084016020850161355b565b6001820180546001600160a01b03929092166001600160a01b03199092169190911790556040830135600282015560608301356003820155608083013560048201556112286005820180546001019055565b61123560a0840184613f09565b611243916006840191613328565b506112ab8261125560c0860186613ec2565b808060200260200160405190810160405280939291908181526020016000905b828210156112a1576112926040830286013681900381019061392a565b81526020019060010190611275565b5050505050612665565b6112c7338360016040518060200160405280600081525061284a565b606460095460556112d89190614087565b6112e29190613f88565b600a60008282546112f39190613f70565b909155505060095460085461131b916101009091046001600160a01b0316903390309061294b565b81337f3ccb8a6d59afcda0cd536b0f47bf1ab098f0deadfd4924ed87857f817d9a733d61134b6020870187613852565b61135b604088016020890161355b565b6040880135606089013560808a013561137760a08c018c613f09565b60405161138a9796959493929190613c2f565b60405180910390a3506001600355919050565b600760205281600052604060002081815481106113b957600080fd5b6000918252602090912001546001600160a01b0381169250600160a01b90046001600160601b0316905082565b6004546000906001600160a01b031633146114135760405162461bcd60e51b815260040161056590613dbc565b61141e600583612989565b9050801561145b576040516001600160a01b038316907f51085ddf9ebdded84b76e829eb58c4078e4b5bdf97d9a94723f336039da4679190600090a25b919050565b600d805461146d906140e9565b80601f0160208091040260200160405190810160405280929190818152602001828054611499906140e9565b80156114e65780601f106114bb576101008083540402835291602001916114e6565b820191906000526020600020905b8154815290600101906020018083116114c957829003601f168201915b505050505081565b6004546000906001600160a01b0316331461151b5760405162461bcd60e51b815260040161056590613dbc565b61152660058361299e565b9050801561145b576040516001600160a01b038316907faab7954e9d246b167ef88aeddad35209ca2489d95a8aeb59e288d9b19fae5a5490600090a2919050565b6002600354141561158a5760405162461bcd60e51b815260040161056590613df1565b6002600355333b156115fe5760085460ff166115fe5760405162461bcd60e51b815260206004820152602d60248201527f496e666c6f773131353542433a206d696e74696e672066726f6d20636f6e747260448201526c1858dd1cc8191a5cd8589b1959609a1b6064820152608401610565565b6000818152600c6020526040908190206003810154600182015492516370a0823160e01b8152336004820152919290916001600160a01b03909116906370a082319060240160206040518083038186803b15801561165b57600080fd5b505afa15801561166f573d6000803e3d6000fd5b505050506040513d601f19601f8201168201806040525081019061169391906139aa565b10156116f95760405162461bcd60e51b815260206004820152602f60248201527f496e666c6f773131353542433a20696e73756666696369656e7420736f63696160448201526e6c20746f6b656e2062616c616e636560881b6064820152608401610565565b6117098160050180546001019055565b6000611716826005015490565b9050600080835460ff16600281111561173f57634e487b7160e01b600052602160045260246000fd5b146117585782546117539060ff1683611d97565b61175e565b82600201545b9050600080845460ff16600281111561178757634e487b7160e01b600052602160045260246000fd5b146117a057835461179b9060ff1684610b86565b6117b7565b60646117ad836055614087565b6117b79190613f88565b905080600a60008282546117cb9190613f70565b90915550600090506117e06104d283856140a6565b90506117fe338760016040518060200160405280600081525061284a565b60085461010090046001600160a01b031661181b8133308761294b565b61182587836129b3565b855461010090046001600160a01b031687337fe64fc0e512eb7bbc05efd77a1f7324dfad7a381246e254bd3de93157bb0ee5488760008b5460ff16600281111561187f57634e487b7160e01b600052602160045260246000fd5b1461189d578a546118989060ff166104428c6001613f70565b6118a3565b8a600201545b600a54604080519384526020840192909252908201899052606082018b90526080820188905260a082015260c00160405180910390a4505060016003555050505050565b6004546001600160a01b031633146119115760405162461bcd60e51b815260040161056590613dbc565b610c2a600d8383613328565b336001600160a01b03831614156119885760405162461bcd60e51b815260206004820152602960248201527f455243313135353a2073657474696e6720617070726f76616c20737461747573604482015268103337b91039b2b63360b91b6064820152608401610565565b3360008181526001602090815260408083206001600160a01b03871680855290835292819020805460ff191686151590811790915590519081529192917f17307eab39ab6107e8899845ad3d59bd9653f200f220920489ca2b5937696c31910160405180910390a35050565b60026003541415611a175760405162461bcd60e51b815260040161056590613df1565b60026003556000828152600c60205260409020805461010090046001600160a01b0316611a565760405162461bcd60e51b815260040161056590613d7a565b6000611a63826005015490565b905082811015611ac15760405162461bcd60e51b8152602060048201526024808201527f496e666c6f773131353542433a20696e76616c6964206d696e696d756d20737560448201526370706c7960e01b6064820152608401610565565b600080835460ff166002811115611ae857634e487b7160e01b600052602160045260246000fd5b14611b01578254611afc9060ff1683610b86565b611b1e565b606483600201546055611b149190614087565b611b1e9190613f88565b9050611b2c83600501612b05565b6000611b39846005015490565b905081600a6000828254611b4d91906140a6565b909155505080611bb2576000868152600c6020526040812080546001600160a81b03191681556001810180546001600160a01b03191690556002810182905560038101829055600481018290556005810182905590611baf60068301826133ac565b50505b611bbe33876001612b5c565b600854611bda9061010090046001600160a01b03163384612602565b85337f79db39e078a63768f06f8a7543f5f0f8c24c6352fcedeb1433239a66b880be5e846000885460ff166002811115611c2457634e487b7160e01b600052602160045260246000fd5b14611c3d578754611c389060ff1688611d97565b611c43565b87600201545b6000895460ff166002811115611c6957634e487b7160e01b600052602160045260246000fd5b14611c82578854611c7d9060ff1687610b86565b611c9f565b606489600201546055611c959190614087565b611c9f9190613f88565b600a546040805194855260208501939093529183015260608201869052608082015260a00160405180910390a35050600160035550505050565b606060076000838152602001908152602001600020805480602002602001604051908101604052809291908181526020016000905b82821015611d5d57600084815260209081902060408051808201909152908401546001600160a01b0381168252600160a01b90046001600160601b031681830152825260019092019101611d0e565b505050509050919050565b6004546001600160a01b03163314611d925760405162461bcd60e51b815260040161056590613dbc565b600955565b60006001836002811115611dbb57634e487b7160e01b600052602160045260246000fd5b1415611dd157611dca82612cde565b9050611e05565b6002836002811115611df357634e487b7160e01b600052602160045260246000fd5b1415611e0557611e0282612ceb565b90505b611e12620f424082614087565b9392505050565b611e216133e9565b6000828152600c602052604090819020815161010081019092528054829060ff166002811115611e6157634e487b7160e01b600052602160045260246000fd5b6002811115611e8057634e487b7160e01b600052602160045260246000fd5b815281546001600160a01b03610100909104811660208084019190915260018401549091166040808401919091526002840154606084015260038401546080840152600484015460a0840152805191820190526005830154815260c082015260068201805460e090920191611ef4906140e9565b80601f0160208091040260200160405190810160405280929190818152602001828054611f20906140e9565b8015611f6d5780601f10611f4257610100808354040283529160200191611f6d565b820191906000526020600020905b815481529060010190602001808311611f5057829003601f168201915b5050505050815250509050919050565b6000600a611f8c836008614087565b6105919190613f88565b6001600160a01b038416611fbc5760405162461bcd60e51b815260040161056590613ceb565b6001600160a01b038516331480611fd85750611fd88533610496565b6120365760405162461bcd60e51b815260206004820152602960248201527f455243313135353a2063616c6c6572206973206e6f74206f776e6572206e6f7260448201526808185c1c1c9bdd995960ba1b6064820152608401610565565b3361205681878761204688612db8565b61204f88612db8565b5050505050565b6000848152602081815260408083206001600160a01b038a168452909152902054838110156120975760405162461bcd60e51b815260040161056590613d30565b6120a184826140a6565b6000868152602081815260408083206001600160a01b038c811685529252808320939093558816815290812080548692906120dd908490613f70565b909155505060408051868152602081018690526001600160a01b03808916928a821692918616917fc3d58168c5ae7397731d063d5bbf3d657854427343f4c083240f7aacaa2d0f62910160405180910390a461213d828888888888612e11565b50505050505050565b6004546001600160a01b031633146121705760405162461bcd60e51b815260040161056590613dbc565b6001600160a01b0381166121d55760405162461bcd60e51b815260206004820152602660248201527f4f776e61626c653a206e6577206f776e657220697320746865207a65726f206160448201526564647265737360d01b6064820152608401610565565b6004546040516001600160a01b038084169216907f8be0079c531659141344cd1fd0a4f28419497f9722a3daafe3b4186f6b6457e090600090a3600480546001600160a01b0319166001600160a01b0392909216919091179055565b60006001600160e01b03198216636cdb3d1360e11b148061226257506001600160e01b031982166303a24d0760e21b145b8061059157506301ffc9a760e01b6001600160e01b0319831614610591565b6060816122a55750506040805180820190915260018152600360fc1b602082015290565b8160005b81156122cf57806122b981614150565b91506122c89050600a83613f88565b91506122a9565b6000816001600160401b038111156122f757634e487b7160e01b600052604160045260246000fd5b6040519080825280601f01601f191660200182016040528015612321576020820181803683370190505b5090505b8415610bac576123366001836140a6565b9150612343600a8661416b565b61234e906030613f70565b60f81b81838151811061237157634e487b7160e01b600052603260045260246000fd5b60200101906001600160f81b031916908160001a905350612393600a86613f88565b9450612325565b6001600160a01b0384163b15610b7e5760405163bc197c8160e01b81526001600160a01b0385169063bc197c81906123de9089908990889088908890600401613b43565b602060405180830381600087803b1580156123f857600080fd5b505af1925050508015612428575060408051601f3d908101601f1916820190925261242591810190613836565b60015b6124d5576124346141c1565b806308c379a0141561246e57506124496141d9565b806124545750612470565b8060405162461bcd60e51b81526004016105659190613c90565b505b60405162461bcd60e51b815260206004820152603460248201527f455243313135353a207472616e7366657220746f206e6f6e20455243313135356044820152732932b1b2b4bb32b91034b6b83632b6b2b73a32b960611b6064820152608401610565565b6001600160e01b0319811663bc197c8160e01b1461213d5760405162461bcd60e51b815260040161056590613ca3565b600083815260076020526040812054905b8181101561204f57600085815260076020526040902080546001600160a01b03861691908390811061255857634e487b7160e01b600052603260045260246000fd5b6000918252602090912001546001600160a01b031614156125ce5760008581526007602052604090208054849190839081106125a457634e487b7160e01b600052603260045260246000fd5b600091825260209091200180546001600160a01b0319166001600160a01b03929092169190911790555b806125d881614150565b915050612516565b6001600160a01b03811660009081526001830160205260408120541515611e12565b6040516001600160a01b038316602482015260448101829052610c2a90849063a9059cbb60e01b906064015b60408051601f198184030181529190526020810180516001600160e01b03166001600160e01b031990931692909217909152612edb565b60005b815181101561283b5760006001600160a01b031682828151811061269c57634e487b7160e01b600052603260045260246000fd5b6020026020010151600001516001600160a01b031614156127165760405162461bcd60e51b815260206004820152602e60248201527f4162737472616374526f79616c746965733a20526563697069656e742073686f60448201526d1d5b19081899481c1c995cd95b9d60921b6064820152608401610565565b81818151811061273657634e487b7160e01b600052603260045260246000fd5b6020026020010151602001516001600160601b0316600014156127b75760405162461bcd60e51b815260206004820152603360248201527f4162737472616374526f79616c746965733a20526f79616c74792076616c75656044820152722073686f756c6420626520706f73697469766560681b6064820152608401610565565b600083815260076020526040902082518390839081106127e757634e487b7160e01b600052603260045260246000fd5b6020908102919091018101518254600181018455600093845292829020815191909201516001600160601b0316600160a01b026001600160a01b03909116179101558061283381614150565b915050612668565b506128468282612fad565b5050565b6001600160a01b0384166128aa5760405162461bcd60e51b815260206004820152602160248201527f455243313135353a206d696e7420746f20746865207a65726f206164647265736044820152607360f81b6064820152608401610565565b336128bb8160008761204688612db8565b6000848152602081815260408083206001600160a01b0389168452909152812080548592906128eb908490613f70565b909155505060408051858152602081018590526001600160a01b0380881692600092918516917fc3d58168c5ae7397731d063d5bbf3d657854427343f4c083240f7aacaa2d0f62910160405180910390a461204f81600087878787612e11565b6040516001600160a01b03808516602483015283166044820152606481018290526129839085906323b872dd60e01b9060840161262e565b50505050565b6000611e12836001600160a01b038416612fea565b6000611e12836001600160a01b038416613101565b600082815260076020908152604080832080548251818502810185019093528083529192909190849084015b82821015612a2e57600084815260209081902060408051808201909152908401546001600160a01b0381168252600160a01b90046001600160601b0316818301528252600190920191016129df565b5050600854929350849261010090046001600160a01b03169150600090505b8351811015610b7e57600080612aa287878581518110612a7d57634e487b7160e01b600052603260045260246000fd5b6020026020010151602001516001600160601b0316876131509092919063ffffffff16565b90955085925090508015612af057612af0868481518110612ad357634e487b7160e01b600052603260045260246000fd5b6020908102919091010151516001600160a01b0386169083612602565b50508080612afd90614150565b915050612a4d565b805480612b545760405162461bcd60e51b815260206004820152601b60248201527f436f756e7465723a2064656372656d656e74206f766572666c6f7700000000006044820152606401610565565b600019019055565b6001600160a01b038316612bbe5760405162461bcd60e51b815260206004820152602360248201527f455243313135353a206275726e2066726f6d20746865207a65726f206164647260448201526265737360e81b6064820152608401610565565b33612bee81856000612bcf87612db8565b612bd887612db8565b5050604080516020810190915260009052505050565b6000838152602081815260408083206001600160a01b038816845290915290205482811015612c6b5760405162461bcd60e51b8152602060048201526024808201527f455243313135353a206275726e20616d6f756e7420657863656564732062616c604482015263616e636560e01b6064820152608401610565565b612c7583826140a6565b6000858152602081815260408083206001600160a01b038a811680865291845282852095909555815189815292830188905292938616917fc3d58168c5ae7397731d063d5bbf3d657854427343f4c083240f7aacaa2d0f62910160405180910390a45050505050565b600061059182600a614087565b60006032821015612d3f57612d018260326140a6565b612d0c90600b613fdf565b612d178360326140a6565b612d2290600a613fdf565b612d2e906103e8614087565b612d389190613f88565b9050612d96565b8160321415612d5157506103e8612d96565b612d5c6032836140a6565b612d6790600a613fdf565b612d726032846140a6565b612d7d90600b613fdf565b612d89906103e8614087565b612d939190613f88565b90505b612da182601a614087565b612dab9082613f70565b90506105916008826140a6565b60408051600180825281830190925260609160009190602080830190803683370190505090508281600081518110612e0057634e487b7160e01b600052603260045260246000fd5b602090810291909101015292915050565b6001600160a01b0384163b15610b7e5760405163f23a6e6160e01b81526001600160a01b0385169063f23a6e6190612e559089908990889088908890600401613ba1565b602060405180830381600087803b158015612e6f57600080fd5b505af1925050508015612e9f575060408051601f3d908101601f19168201909252612e9c91810190613836565b60015b612eab576124346141c1565b6001600160e01b0319811663f23a6e6160e01b1461213d5760405162461bcd60e51b815260040161056590613ca3565b6000612f30826040518060400160405280602081526020017f5361666545524332303a206c6f772d6c6576656c2063616c6c206661696c6564815250856001600160a01b03166131729092919063ffffffff16565b805190915015610c2a5780806020019051810190612f4e91906137fe565b610c2a5760405162461bcd60e51b815260206004820152602a60248201527f5361666545524332303a204552433230206f7065726174696f6e20646964206e6044820152691bdd081cdd58d8d9595960b21b6064820152608401610565565b7f3fa96d7b6bcbfe71ef171666d84db3cf52fa2d1c8afdb1cc8e486177f208b7df8282604051612fde929190613ea9565b60405180910390a15050565b600081815260018301602052604081205480156130f757600061300e6001836140a6565b8554909150600090613022906001906140a6565b9050600086600001828154811061304957634e487b7160e01b600052603260045260246000fd5b906000526020600020015490508087600001848154811061307a57634e487b7160e01b600052603260045260246000fd5b6000918252602080832090910192909255828152600189019091526040902084905586548790806130bb57634e487b7160e01b600052603160045260246000fd5b60019003818190600052602060002001600090559055866001016000878152602001908152602001600020600090556001945050505050610591565b6000915050610591565b600081815260018301602052604081205461314857508154600181810184556000848152602080822090930184905584548482528286019093526040902091909155610591565b506000610591565b600080613166856131618686613181565b61319a565b91509150935093915050565b6060610bac84846000856131c7565b60006127106131908385614087565b611e129190613f88565b600080828411156131b9576131af83856140a6565b91508290506131c0565b5060009050825b9250929050565b6060824710156132285760405162461bcd60e51b815260206004820152602660248201527f416464726573733a20696e73756666696369656e742062616c616e636520666f6044820152651c8818d85b1b60d21b6064820152608401610565565b843b6132765760405162461bcd60e51b815260206004820152601d60248201527f416464726573733a2063616c6c20746f206e6f6e2d636f6e74726163740000006044820152606401610565565b600080866001600160a01b031685876040516132929190613af8565b60006040518083038185875af1925050503d80600081146132cf576040519150601f19603f3d011682016040523d82523d6000602084013e6132d4565b606091505b50915091506132e48282866132ef565b979650505050505050565b606083156132fe575081611e12565b82511561330e5782518084602001fd5b8160405162461bcd60e51b81526004016105659190613c90565b828054613334906140e9565b90600052602060002090601f016020900481019282613356576000855561339c565b82601f1061336f5782800160ff1982351617855561339c565b8280016001018555821561339c579182015b8281111561339c578235825591602001919060010190613381565b506133a8929150613455565b5090565b5080546133b8906140e9565b6000825580601f106133c8575050565b601f0160209004906000526020600020908101906133e69190613455565b50565b604080516101008101909152806000815260200160006001600160a01b0316815260200160006001600160a01b031681526020016000815260200160008152602001600081526020016134486040518060200160405280600081525090565b8152602001606081525090565b5b808211156133a85760008155600101613456565b600082601f83011261347a578081fd5b8135602061348782613f4d565b6040516134948282614124565b8381528281019150858301600585901b870184018810156134b3578586fd5b855b858110156134d1578135845292840192908401906001016134b5565b5090979650505050505050565b600082601f8301126134ee578081fd5b81356001600160401b03811115613507576135076141ab565b60405161351e601f8301601f191660200182614124565b818152846020838601011115613532578283fd5b816020850160208301379081016020019190915292915050565b80356003811061145b57600080fd5b60006020828403121561356c578081fd5b8135611e1281614262565b60008060408385031215613589578081fd5b823561359481614262565b915060208301356135a481614262565b809150509250929050565b600080600080600060a086880312156135c6578081fd5b85356135d181614262565b945060208601356135e181614262565b935060408601356001600160401b03808211156135fc578283fd5b61360889838a0161346a565b9450606088013591508082111561361d578283fd5b61362989838a0161346a565b9350608088013591508082111561363e578283fd5b5061364b888289016134de565b9150509295509295909350565b600080600080600060a0868803121561366f578081fd5b853561367a81614262565b9450602086013561368a81614262565b9350604086013592506060860135915060808601356001600160401b038111156136b2578182fd5b61364b888289016134de565b600080604083850312156136d0578182fd5b82356136db81614262565b915060208301356135a481614277565b600080604083850312156136fd578182fd5b823561370881614262565b946020939093013593505050565b60008060408385031215613728578182fd5b82356001600160401b038082111561373e578384fd5b818501915085601f830112613751578384fd5b8135602061375e82613f4d565b60405161376b8282614124565b8381528281019150858301600585901b870184018b101561378a578889fd5b8896505b848710156137b55780356137a181614262565b83526001969096019591830191830161378e565b50965050860135925050808211156137cb578283fd5b506137d88582860161346a565b9150509250929050565b6000602082840312156137f3578081fd5b8135611e1281614277565b60006020828403121561380f578081fd5b8151611e1281614277565b60006020828403121561382b578081fd5b8135611e1281614285565b600060208284031215613847578081fd5b8151611e1281614285565b600060208284031215613863578081fd5b611e128261354c565b6000806040838503121561387e578182fd5b6137088361354c565b60008060208385031215613899578182fd5b82356001600160401b03808211156138af578384fd5b818501915085601f8301126138c2578384fd5b8135818111156138d0578485fd5b8660208285010111156138e1578485fd5b60209290920196919550909350505050565b600060208284031215613904578081fd5b81356001600160401b03811115613919578182fd5b820160e08185031215611e12578182fd5b60006040828403121561393b578081fd5b604051604081018181106001600160401b038211171561395d5761395d6141ab565b604052823561396b81614262565b815260208301356001600160601b0381168114613986578283fd5b60208201529392505050565b6000602082840312156139a3578081fd5b5035919050565b6000602082840312156139bb578081fd5b5051919050565b6000806000606084860312156139d6578081fd5b8335925060208401356139e881614262565b915060408401356139f881614262565b809150509250925092565b60008060408385031215613a15578182fd5b50508035926020909101359150565b6000815180845260208085019450808401835b83811015613a7057815180516001600160a01b031688528301516001600160601b03168388015260409096019590820190600101613a37565b509495945050505050565b6000815180845260208085019450808401835b83811015613a7057815187529582019590820190600101613a8e565b60008151808452613ac28160208601602086016140bd565b601f01601f19169290920160200192915050565b60038110613af457634e487b7160e01b600052602160045260246000fd5b9052565b60008251613b0a8184602087016140bd565b9190910192915050565b60008351613b268184602088016140bd565b835190830190613b3a8183602088016140bd565b01949350505050565b6001600160a01b0386811682528516602082015260a060408201819052600090613b6f90830186613a7b565b8281036060840152613b818186613a7b565b90508281036080840152613b958185613aaa565b98975050505050505050565b6001600160a01b03868116825285166020820152604081018490526060810183905260a0608082018190526000906132e490830184613aaa565b602081526000611e126020830184613a24565b602081526000611e126020830184613a7b565b604081526000613c146040830185613a7b565b8281036020840152613c268185613a7b565b95945050505050565b613c398189613ad6565b60018060a01b038716602082015285604082015284606082015283608082015260c060a08201528160c0820152818360e0830137600081830160e090810191909152601f909201601f191601019695505050505050565b602081526000611e126020830184613aaa565b60208082526028908201527f455243313135353a204552433131353552656365697665722072656a656374656040820152676420746f6b656e7360c01b606082015260800190565b60208082526025908201527f455243313135353a207472616e7366657220746f20746865207a65726f206164604082015264647265737360d81b606082015260800190565b6020808252602a908201527f455243313135353a20696e73756666696369656e742062616c616e636520666f60408201526939103a3930b739b332b960b11b606082015260800190565b60208082526022908201527f496e666c6f773131353542433a20746f6b656e20646f6573206e6f74206578696040820152611cdd60f21b606082015260800190565b6020808252818101527f4f776e61626c653a2063616c6c6572206973206e6f7420746865206f776e6572604082015260600190565b6020808252601f908201527f5265656e7472616e637947756172643a207265656e7472616e742063616c6c00604082015260600190565b60208152613e3a602082018351613ad6565b6000602083015160018060a01b038082166040850152806040860151166060850152505060608301516080830152608083015160a083015260a083015160c083015260c0830151613e8e60e0840182519052565b5060e083015161010083810152610bac610120840182613aaa565b828152604060208201526000610bac6040830184613a24565b6000808335601e19843603018112613ed8578283fd5b8301803591506001600160401b03821115613ef1578283fd5b6020019150600681901b36038213156131c057600080fd5b6000808335601e19843603018112613f1f578283fd5b8301803591506001600160401b03821115613f38578283fd5b6020019150368190038213156131c057600080fd5b60006001600160401b03821115613f6657613f666141ab565b5060051b60200190565b60008219821115613f8357613f8361417f565b500190565b600082613f9757613f97614195565b500490565b600181815b80851115613fd7578160001904821115613fbd57613fbd61417f565b80851615613fca57918102915b93841c9390800290613fa1565b509250929050565b6000611e128383600082613ff557506001610591565b8161400257506000610591565b816001811461401857600281146140225761403e565b6001915050610591565b60ff8411156140335761403361417f565b50506001821b610591565b5060208310610133831016604e8410600b8410161715614061575081810a610591565b61406b8383613f9c565b806000190482111561407f5761407f61417f565b029392505050565b60008160001904831182151516156140a1576140a161417f565b500290565b6000828210156140b8576140b861417f565b500390565b60005b838110156140d85781810151838201526020016140c0565b838111156129835750506000910152565b600181811c908216806140fd57607f821691505b6020821081141561411e57634e487b7160e01b600052602260045260246000fd5b50919050565b601f8201601f191681016001600160401b0381118282101715614149576141496141ab565b6040525050565b60006000198214156141645761416461417f565b5060010190565b60008261417a5761417a614195565b500690565b634e487b7160e01b600052601160045260246000fd5b634e487b7160e01b600052601260045260246000fd5b634e487b7160e01b600052604160045260246000fd5b600060033d11156141d657600481823e5160e01c5b90565b600060443d10156141e75790565b6040516003193d81016004833e81513d6001600160401b03816024840111818411171561421657505050505090565b828501915081518181111561422e5750505050505090565b843d87010160208285010111156142485750505050505090565b61425760208286010187614124565b509095945050505050565b6001600160a01b03811681146133e657600080fd5b80151581146133e657600080fd5b6001600160e01b0319811681146133e657600080fdfea164736f6c6343000804000a",
  "linkReferences": {},
  "deployedLinkReferences": {}
}